:100000000C942A000C9447000C9447000C94190798
:100010000C9442070C946B070C9494070C94BD0746
:100020000C94E6070C940F080C9447000C944700BE
:100030000C9447000C9447000C9447000C94470024
:100040000C9447000C9447000C9447000C946F08E4
:100050000C94470011241FBECFE5D8E0DEBFCDBF12
:1000600011E0A0E6B0E0E2E6F9E102C005900D92F1
:10007000A638B107D9F721E0A6E8B1E001C01D928A
:10008000A53AB207E1F70E9478010C94AF0C0C94EA
:100090000000E4E9F1E01182128285E0808380E0D3
:1000A00090E0A0EAB0E483839483A583B683CF0174
:1000B0000E944605882311F081E0089580E00895AC
:1000C000E0EAF1E083E3808383E081831282CF0161
:1000D0000E94A3010E94490080E00895E091A301DD
:1000E000F091A40186E38183E091A301F091A40142
:1000F00083E0808383EA91E00E94070380E0089513
:100100000E9460000E946E000E94D2010E949C0921
:100110000895CF93DF931F92CDB7DEB71982BE014A
:100120006F5F7F4F89E090E00E94450289818830AF
:1001300019F40E94C80903C089E00E94C80984E636
:1001400080939F010F90DF91CF9108950F931F939C
:10015000CF93DF93CDB7DEB728970FB6F894DEBF05
:100160000FBECDBF19821A821B821C821D821E8285
:100170001F821886CE0101960E94F00900E010E06F
:100180000BC065E070E06C0F7D1F600F711F0F5F8B
:100190001F4FC8010E9445020430110594F3BE01AF
:1001A0006B5F7F4FCE0101960E94580A892B21F484
:1001B00082E00E94C80903C083E00E94C80984E667
:1001C00080939F0128960FB6F894DEBF0FBECDBF77
:1001D000DF91CF911F910F910895CF93DF9300D0BE
:1001E00000D0CDB7DEB719821A821B821C82CE01E5
:1001F00001960E94F009698181E090E00E94E5018A
:1002000060E070E080E291E40E94090A6A8182E085
:1002100090E00E94E50160E070E080E291E40E94DD
:10022000090A6B8183E090E00E94E50160E070E0E4
:1002300080E291E40E94090A6C8184E090E00E94CF
:10024000E50160E070E080E291E40E94090A68E064
:1002500089E090E00E94E50160E070E080E291E4D6
:100260000E94090A84E680939F010F900F900F90DF
:100270000F90DF91CF9108958DE491E00E940B07DC
:1002800084E991E00E946B0661E080EA91E00E94BF
:10029000B30184E680939F01089584E991E00E9470
:1002A000BB0660E080EA91E00E94B30184E680939F
:1002B0009F0108958BE691E00E940B0784E991E08D
:1002C0000E946B0664EB83EA91E00E945C0384E683
:1002D00080939F01089584E991E00E94BB0660E04D
:1002E00083EA91E00E945C0384E680939F01089575
:1002F00084E680939F010E9480008FE991E00E9434
:10030000DC0980919F01853079F028F4813079F003
:10031000843081F0F2CF8B3099F08C3071F08A30DC
:1003200061F70E948900E9CF0E94ED00E6CF0E94AC
:10033000A600E3CF0E94ED00E0CF0E943C01DDCF9C
:100340000E945A01DACFFC012281223040F442E0BF
:10035000618180810E94DC03811103C0089581E0E6
:10036000089582E00895FC012281211108C0462FE2
:10037000618180810E94210481110EC00895213085
:1003800069F441E0611140E0FC01618180810E94DB
:100390002104811105C0089582E0089581E0089547
:1003A00082E00895CF93DF931F92CDB7DEB7198215
:1003B000CE0101960E945204811102C081E001C069
:1003C00080E00F90DF91CF910895FF920F931F93DC
:1003D000CF93DF931F92CDB7DEB78C01F62E198233
:1003E0000E946804811139C0CE0101960E949B04CD
:1003F00089818830A1F5C80188279770880F892FD7
:10040000881F990B9195806A0E948104811129C0EF
:10041000CE0101960E949B048981883121F5802FAD
:100420000E948104811121C0CE0101960E949B048B
:1004300089818832E1F48F2D0E948104811119C0D5
:10044000CE0101960E949B0489818832A1F40E940A
:100450007604811112C081E011C080E00FC080E0FD
:100460000DC080E00BC080E009C080E007C080E0E4
:1004700005C080E003C080E001C080E00F90DF9104
:10048000CF911F910F91FF900895CF92DF92EF923D
:10049000FF920F931F93CF93DF931F92CDB7DEB7D9
:1004A0008C017B0119820E946804811154C0CE0125
:1004B00001960E949B048981883009F04EC0680132
:1004C000CC2487E0D822CC0CCD2CCC1CDD08D194D8
:1004D0008C2D806A0E948104811141C0CE01019659
:1004E0000E949B0489818831E1F5802F0E9481045C
:1004F000811139C0CE0101960E949B048981883206
:10050000A1F50E946804811132C0CE0101960E94BB
:100510009B048981803169F58C2D816A0E94810458
:10052000811129C0CE0101960E949B0489818034EB
:1005300021F5C7010E948D04811121C0CE010196D1
:100540000E949B0489818835E1F40E947604811120
:100550001AC081E019C080E017C080E015C080E0BB
:1005600013C080E011C080E00FC080E00DC080E0CB
:100570000BC080E009C080E007C080E005C080E0DB
:1005800003C080E001C080E00F90DF91CF911F9108
:100590000F91FF90EF90DF90CF9008954F925F9270
:1005A0006F927F92AF92BF92CF92DF92EF92FF92C3
:1005B0000F931F93CF93DF93CDB7DEB729013A0195
:1005C00029893A894B895C892A193B094C095D09BB
:1005D0000E94630CA801970124193509460957099F
:1005E0000E94730CC601B501620F731F841F951F13
:1005F000DF91CF911F910F91FF90EF90DF90CF90FF
:10060000BF90AF907F906F905F904F900895CF9381
:10061000DF93EC01888199810E94A104811146C079
:10062000E881F98180818430B9F018F4833031F0A9
:100630003FC08530F9F0873059F13AC086E090E04C
:10064000909389018093880180E290E090938701E4
:100650008093860180E02DC086E696E09093890124
:100660008093880180E090E29093870180938601D7
:1006700080E01FC086E696E0909389018093880110
:1006800080E090E2909387018093860180E011C022
:1006900086E090E0909389018093880180E290E069
:1006A000909387018093860180E003C081E001C0C0
:1006B00080E0DF91CF910895AF92BF92CF92DF9209
:1006C000EF92FF920F931F93DC01ED91FC918081DB
:1006D000843039F1853009F445C0833009F062C0B7
:1006E000A0908801B0908901C12CD12C70E080E0ED
:1006F00090E000918601109187011F921F921F9335
:100700000F9314EBE12EF12C00E010E020E030E03C
:10071000A9010E94CE020F900F900F900F906ABD1A
:1007200041C0A0908801B0908901C12CD12C70E00B
:1007300080E090E000918601109187011F921F9246
:100740001F930F9314EBE12EF12C00E010E020E05A
:1007500030E0A9010E94CE020F900F900F900F90F1
:1007600068BD20C0A0908801B0908901C12CD12C17
:1007700070E080E090E000918601109187011F9267
:100780001F921F930F9314EBE12EF12C00E010E069
:1007900020E030E0A9010E94CE020F900F900F9050
:1007A0000F9063BD80E01F910F91FF90EF90DF905D
:1007B000CF90BF90AF900895893331F0863321F008
:1007C000833311F08033B9F56830B8F5413089F0E2
:1007D000F8F04230A1F5E82FF0E0218181E090E0CF
:1007E00002C0880F991F6A95E2F7822B818380E00F
:1007F0000895E82FF0E0218181E090E002C0880FA9
:10080000991F6A95E2F780958223818380E008959D
:10081000E82FF0E0218181E090E002C0880F991F6D
:100820006A95E2F7982F9095922391839281892B74
:10083000828380E0089582E0089583E0089584E053
:100840000895893331F0863321F0833311F08033FA
:1008500019F5683018F5442381F0413009F5E82F87
:10086000F0E0228181E090E002C0880F991F6A9534
:10087000E2F7822B828380E00895E82FF0E0228166
:1008800081E090E002C0880F991F6A95E2F7809599
:100890008223828380E0089582E0089583E00895B2
:1008A00085E0089511B8FC018081811104C080E2C7
:1008B00080B980E007C0813021F482E080B980E017
:1008C00001C082E092E092B996B7946096BF089515
:1008D00086B7806886BF86B7806286BF86B7846029
:1008E00086BF06B607FEFDCF80E0089586B7806814
:1008F00086BF86B7806186BF86B7846086BF80E08A
:10090000089583B986B7806886BF86B7846086BF3E
:1009100006B607FEFDCF80E00895FC0196B790680B
:1009200096BF96B7946096BF06B607FEFDCF83E2EA
:10093000808380E00895FC0191B1987F908380E0EE
:100940000895DC011196EC911197F0E0818121E08E
:1009500030E00C9002C0220F331F0A94E2F7282BDC
:1009600021838C91843009F118F4833039F062C00E
:10097000853091F1873009F446C05CC083B780644C
:1009800083BF83B7886083BF83B7806283BF83B729
:100990008F7E83BF83B78B7F83BF83B78D7F83BFFA
:1009A00083B7816083BF80E008958FB582608FBD7B
:1009B0008FB581608FBD8FB580688FBD8FB58F7B00
:1009C0008FBD8EB58B7F8EBD8EB58D7F8EBD8EB566
:1009D00081608EBD80E008958FB582608FBD8FB538
:1009E00081608FBD8FB580628FBD8FB58F7E8FBDCB
:1009F0008EB58B7F8EBD8EB58D7F8EBD8EB58160A1
:100A00008EBD80E0089585B5806485BD85B588601C
:100A100085BD85B5806285BD85B58F7E85BD85B573
:100A20008B7F85BD85B58D7F85BD85B5816085BD95
:100A300080E0089582E00895833081F028F48130C9
:100A400041F08230F1F019C0843069F0853081F0D6
:100A500014C060E070E080E89FE3089560E070E01B
:100A600080E892E4089560E070E080E893E40895FF
:100A700060E070E080E894E4089560E070E0CB010D
:100A8000089560E070E080E091E408954F925F92F5
:100A90006F927F92CF92DF92EF92FF920F931F930C
:100AA000CF938C018FB780688FBFF801C0818C2FE6
:100AB0000E941C056B017C0120E034E244EF5AE403
:100AC0000E94DB0AF8012181233018F4213028F03C
:100AD00050C0233009F49CC0E5C023B7287FC22B47
:100AE000C3BF20E030E040E853E40E94F60BF80179
:100AF0002281211117C012BE23B7206823BFC380F3
:100B0000D480E580F6809B01AC01C701B6010E944C
:100B1000DB0AF80167837087818792870E9410073C
:100B200080E0CDC0213009F0BFC012BE23B72068DD
:100B300023BF23B7286023BFF8014380548065801A
:100B40007680A30192010E94F10B18160CF0AEC042
:100B500020E034E244EF5AE4C301B2010E94F60BF4
:100B6000A70196010E94DB0A0E944D0B6CBF80E03A
:100B7000A6C02EB5287FC22BCEBD20E030E040E8D5
:100B800057E40E94F60BF801228121111AC01CBC07
:100B90002FB528602FBD2FB524602FBDC380D48012
:100BA000E580F6809B01AC01C701B6010E94DB0A1B
:100BB000F80167837087818792870E94100780E021
:100BC0007EC0213009F074C01CBC2FB528602FBD39
:100BD0002FB528602FBDF801438054806580768052
:100BE000A30192010E94F10B18160CF063C020E0E3
:100BF00034E244EF5AE4C301B2010E94F60BA701AC
:100C000096010E94DB0A0E944D0B6ABD80E057C02E
:100C100025B5287FC22BC5BD20E030E040E853E475
:100C20000E94F60BF8012281211117C014BC25B5D2
:100C3000206825BDC380D480E580F6809B01AC018F
:100C4000C701B6010E94DB0AF801678370878187BC
:100C500092870E94100780E032C0213069F514BCF1
:100C600025B5206825BD25B5286025BDF801438040
:100C7000548065807680A30192010E94F10B1816C2
:100C8000ECF420E034E244EF5AE4C301B2010E94E4
:100C9000F60BA70196010E94DB0A0E944D0B63BD73
:100CA00080E00DC080E00BC083E009C084E007C095
:100CB00083E005C084E003C083E001C084E0CF91FD
:100CC0001F910F91FF90EF90DF90CF907F906F90EA
:100CD0005F904F900895FC0191819130A9F028F028
:100CE000923009F1933071F13CC08281811105C0CD
:100CF00089B7816089BF80E008958130A1F589B707
:100D0000826089BF80E008958281811105C089B722
:100D1000846089BF80E00895813039F589B78061AA
:100D200089BF80E008958281811105C089B7806400
:100D300089BF80E008958130D1F489B7886089BF88
:100D400080E008958281811105C089B7806489BFE0
:100D500080E00895813069F489B7806889BF80E0B8
:100D6000089582E0089583E0089583E0089583E084
:100D7000089583E00895FC0191819130A9F028F055
:100D8000923009F1933071F13CC08281811105C02C
:100D900089B78E7F89BF80E008958130A1F589B73A
:100DA0008D7F89BF80E008958281811105C089B758
:100DB0008B7F89BF80E00895813039F589B78F7EB8
:100DC00089BF80E008958281811105C089B7806460
:100DD00089BF80E008958130D1F489B7886089BFE8
:100DE00080E008958281811105C089B78F7B89BF1A
:100DF00080E00895813069F489B78F7789BF80E0FA
:100E0000089582E0089583E0089583E0089583E0E3
:100E1000089583E00895909393018093920108953B
:100E200060938A0170938B0180938C0190938D0164
:100E300008951F920F920FB60F9211242F933F9394
:100E40004F935F936F937F938F939F93AF93BF93D2
:100E5000EF93FF93E0919201F0919301309709F0A5
:100E60000995FF91EF91BF91AF919F918F917F91E4
:100E70006F915F914F913F912F910F900FBE0F9007
:100E80001F9018951F920F920FB60F9211242F9357
:100E90003F934F935F936F937F938F939F93AF9302
:100EA000BF93EF93FF93E0919201F09193013097FC
:100EB00009F00995FF91EF91BF91AF919F918F91AB
:100EC0007F916F915F914F913F912F910F900FBE46
:100ED0000F901F9018951F920F920FB60F9211242A
:100EE0002F933F934F935F936F937F938F939F9332
:100EF000AF93BF93EF93FF93E0919201F091930131
:100F0000309709F00995FF91EF91BF91AF919F91B3
:100F10008F917F916F915F914F913F912F910F90A2
:100F20000FBE0F901F9018951F920F920FB60F9241
:100F300011242F933F934F935F936F937F938F93DE
:100F40009F93AF93BF93EF93FF93E0919201F09142
:100F50009301309709F00995FF91EF91BF91AF91FF
:100F60009F918F917F916F915F914F913F912F91C1
:100F70000F900FBE0F901F9018951F920F920FB6F3
:100F80000F9211242F933F934F935F936F937F930F
:100F90008F939F93AF93BF93EF93FF93E091920151
:100FA000F0919301309709F00995FF91EF91BF916E
:100FB000AF919F918F917F916F915F914F913F91F1
:100FC0002F910F900FBE0F901F9018951F920F92A8
:100FD0000FB60F9211242F933F934F935F936F930C
:100FE0007F938F939F93AF93BF93EF93FF93E09182
:100FF0009201F0919301309709F00995FF91EF91DB
:10100000BF91AF919F918F917F916F915F914F9120
:101010003F912F910F900FBE0F901F9018951F9228
:101020000F920FB60F9211242F933F934F935F931C
:101030006F937F938F939F93AF93BF93CF93DF93E0
:10104000EF93FF9360918E0170918F0180919001D9
:101050009091910120E030E040E85FE30E946A0A4D
:1010600060938E0170938F01809390019093910112
:10107000C0919201D09193012097F1F060918E017F
:1010800070918F01809190019091910120918A013E
:1010900030918B0140918C0150918D010E94F10B98
:1010A000882354F010928E0110928F0110929001BB
:1010B00010929101FE010995FF91EF91DF91CF917F
:1010C000BF91AF919F918F917F916F915F914F9160
:1010D0003F912F910F900FBE0F901F9018951F9268
:1010E0000F920FB60F9211242F933F934F935F935C
:1010F0006F937F938F939F93AF93BF93EF93FF93E0
:10110000E0919201F0919301309709F00995FF91D8
:10111000EF91BF91AF919F918F917F916F915F916F
:101120004F913F912F910F900FBE0F901F901895E8
:10113000CF92DF92EF92FF92CF93DF93EC018BB1CE
:1011400082608BB98AB180618AB98AB188608AB9B4
:1011500080B5806880BD28813981203689E03807D4
:1011600049F0203C82E1380729F0203885E2380731
:1011700009F042C0C901A0E0B0E0880F991FAA1F82
:10118000BB1F880F991FAA1FBB1F9C01AD01220F17
:10119000331F441F551F0F2EC12CF2E1DF2EFAE73B
:1011A000EF2EF12CF02DC701B6010E94730CDA016D
:1011B000C9010197A109B109892F9A2FAB2FBB272C
:1011C00080BD28813981C901A0E0B0E0880F991F56
:1011D000AA1FBB1F880F991FAA1FBB1F9C01AD012F
:1011E000220F331F441F551FC701B6010E94730C05
:1011F000215029B980E001C083E09A81911104C097
:1012000090B5977F90BD07C0913021F490B598605C
:1012100090BD01C082E09B81911107C090B59F7E77
:1012200090BD90B59F7D90BD13C0913039F490B5BD
:101230009F7E90BD90B5906290BD0AC0923039F407
:1012400090B5906190BD90B5906290BD01C082E074
:101250009C8191110AC090B59D7F90BD90B59B7FF8
:1012600090BD9AB19B7F9AB931C0913051F490B53D
:10127000926090BD90B59B7F90BD9AB19B7F9AB9CB
:1012800025C0923051F490B59D7F90BD90B594608B
:1012900090BD9AB19B7F9AB919C0933051F490B523
:1012A000926090BD90B5946090BD9AB19B7F9AB9C1
:1012B0000DC0943051F490B5926090BD90B594609B
:1012C00090BD9AB194609AB901C084E0DF91CF914A
:1012D000FF90EF90DF90CF9008955D9BFECF8CB98B
:1012E00080E008955F9BFECF2CB1FC01208380E05D
:1012F00008950F931F93CF93DF938C010E9472097F
:10130000882361F0D1E012C0CF5FC8018C0F911D1E
:101310000E947209882321F0D1E002C0C0E0D0E031
:10132000F801EC0FF11D80818111EECF8D2FDF913F
:10133000CF911F910F910895CF93DF9300D000D0EC
:101340001F92CDB7DEB780E895E29A83898383E068
:101350008D831B821C82CE0101960E9498088823EF
:1013600041F060E670E084E890E00E94050A81E0C8
:1013700007C065E970E084E890E00E94040A80E01C
:101380000F900F900F900F900F90DF91CF910895D5
:101390000E946D09882341F06AEB70E084E890E0D8
:1013A0000E94050A81E008956EEC70E084E890E008
:1013B0000E94040A80E008950E947209882341F087
:1013C0006AE171E084E890E00E94050A81E00895F6
:1013D00061E371E084E890E00E94040A80E00895EF
:1013E0000E947909882341F069E471E084E890E083
:1013F0000E94050A81E0089567E671E084E890E0C4
:101400000E94040A80E00895089508950197F1F775
:1014100008958F929F92AF92BF92CF92DF92EF92F8
:10142000FF92CF93DF934B015C0120E030E04AEF65
:1014300054E40E94F60B6B017C0120E030E040E8B0
:101440005FE30E94D60A882324F120E03FEF4FE7B4
:1014500057E4C701B6010E94F10B1816A4F420E06E
:1014600030E040E251E4C501B4010E94F60B0E9455
:101470004D0BEB0105C088EC90E00E94060A219715
:101480002097C9F70AC0C701B6010E944D0BCB01D6
:1014900002C081E090E00E94060ADF91CF91FF90A8
:1014A000EF90DF90CF90BF90AF909F908F90089576
:1014B000DC01FB0105C08081981305C011963196AF
:1014C0009C919111F8CF2081892F90E0821B910986
:1014D00008955058BB27AA270E94810A0C94B70B85
:1014E0000E94A90B38F00E94B00B20F039F49F3F06
:1014F00019F426F40C94A60B0EF4E095E7FB0C947B
:10150000A00BE92F0E94C80B58F3BA1762077307A4
:101510008407950720F079F4A6F50C94EA0B0EF4F5
:10152000E0950B2EBA2FA02D0B01B90190010C01F3
:10153000CA01A0011124FF27591B99F0593F50F40B
:10154000503E68F11A16F040A22F232F342F442763
:10155000585FF3CF469537952795A795F04053955B
:10156000C9F77EF41F16BA0B620B730B840BBAF02B
:101570009150A1F0FF0FBB1F661F771F881FC2F796
:101580000EC0BA0F621F731F841F48F487957795AA
:101590006795B795F7959E3F08F0B0CF9395880F64
:1015A00008F09927EE0F9795879508950E947C0B78
:1015B00008F481E008950E94EF0A0C94B70B0E9492
:1015C000B00B58F00E94A90B40F029F45F3F29F0BE
:1015D0000C94A00B51110C94EB0B0C94A60B0E94D5
:1015E000C80B68F39923B1F3552391F3951B550B61
:1015F000BB27AA2762177307840738F09F5F5F4FE6
:10160000220F331F441FAA1FA9F335D00E2E3AF024
:10161000E0E832D091505040E695001CCAF72BD03C
:10162000FE2F29D0660F771F881FBB1F261737078D
:101630004807AB07B0E809F0BB0B802DBF01FF27BF
:1016400093585F4F3AF09E3F510578F00C94A00BF1
:101650000C94EB0B5F3FE4F3983ED4F386957795BB
:101660006795B795F7959F5FC9F7880F911D969578
:10167000879597F90895E1E0660F771F881FBB1FD4
:10168000621773078407BA0720F0621B730B840B81
:10169000BA0BEE1F88F7E09508950E94D00B88F0F2
:1016A0009F5798F0B92F9927B751B0F0E1F0660F26
:1016B000771F881F991F1AF0BA95C9F714C0B13067
:1016C00091F00E94EA0BB1E008950C94EA0B672FA9
:1016D000782F8827B85F39F0B93FCCF38695779596
:1016E0006795B395D9F73EF490958095709561957F
:1016F0007F4F8F4F9F4F0895990F0008550FAA0BEA
:10170000E0E8FEEF16161706E807F907C0F0121614
:101710001306E407F50798F0621B730B840B950B17
:1017200039F40A2661F0232B242B252B21F408956C
:101730000A2609F4A140A6958FEF811D811D089509
:1017400097F99F6780E870E060E008959FEF80EC74
:10175000089500240A941616170618060906089517
:1017600000240A9412161306140605060895092E7D
:101770000394000C11F4882352F0BB0F40F4BF2BEC
:1017800011F460FF04C06F5F7F4F8F4F9F4F08952C
:1017900057FD9058440F551F59F05F3F71F0479522
:1017A000880F97FB991F61F09F3F79F08795089507
:1017B000121613061406551FF2CF4695F1DF08C026
:1017C000161617061806991FF1CF86957105610543
:1017D00008940895E894BB2766277727CB0197F9EB
:1017E00008950E947C0B08F48FEF08950E94090C65
:1017F0000C94B70B0E94A90B38F00E94B00B20F09C
:10180000952311F00C94A00B0C94A60B11240C94AE
:10181000EB0B0E94C80B70F3959FC1F3950F50E03E
:10182000551F629FF001729FBB27F00DB11D639F92
:10183000AA27F00DB11DAA1F649F6627B00DA11D38
:10184000661F829F2227B00DA11D621F739FB00DDE
:10185000A11D621F839FA00D611D221F749F33274E
:10186000A00D611D231F849F600D211D822F762FE7
:101870006A2F11249F5750409AF0F1F088234AF0C4
:10188000EE0FFF1FBB1F661F771F881F9150504030
:10189000A9F79E3F510580F00C94A00B0C94EB0B24
:1018A0005F3FE4F3983ED4F3869577956795B795B7
:1018B000F795E7959F5FC1F7FE2B880F911D9695D1
:1018C000879597F90895DB018F939F930E94950C5C
:1018D000BF91AF91A29F800D911DA39F900DB29FCC
:1018E000900D11240895A1E21A2EAA1BBB1BFD0125
:1018F0000DC0AA1FBB1FEE1FFF1FA217B307E407EF
:10190000F50720F0A21BB30BE40BF50B661F771F46
:10191000881F991F1A9469F7609570958095909526
:101920009B01AC01BD01CF0108950E94A00CA59FB1
:10193000900DB49F900DA49F800D911D11240895CA
:10194000A29FB001B39FC001A39F700D811D112400
:10195000911DB29F700D811D1124911D0895F89461
:02196000FFCFB7
:101962004661696C656420746F20696E697469618F
:101972006C697A65206D6573736167696E6720555E
:101982006E6974005B4D4553534147494E4720559C
:101992004E49545D005375636365656420746F201E
:1019A200696E697469616C697A65206D65737361CA
:1019B20067696E6720556E6974004661696C65647B
:1019C20020746F2073656E642064617461005375C6
:1019D200636365656420746F2073656E642064615F
:1019E2007461004661696C656420746F2073656E72
:1019F2006420737472696E67206461746100537548
:101A0200636365656420746F2073656E642073740C
:101A120072696E672064617461004661696C656415
:101A220020746F20726563656976652064617461F4
:101A3200005375636365656420746F207265636526
:101A42006976652064617461004661696C65642031
:101A5200746F207265636569766520737472696E4E
:101A62006720646174610053756363656564207403
:101A72006F207265636569766520737472696E673B
:061A8200206461746100A4
:00000001FF
