:100000000C942A000C9447000C9447000C9444076D
:100010000C946D070C9496070C94BF070C94E8079A
:100020000C9411080C943A080C9447000C94470067
:100030000C9447000C9447000C9447000C94470024
:100040000C9447000C9447000C9447000C949A08B9
:100050000C94470011241FBECFE5D8E0DEBFCDBF12
:1000600012E0A0E6B0E0E4E5F9E102C005900D92EF
:10007000AC32B107D9F722E0ACE2B2E001C01D9288
:10008000A735B207E1F70E94D0020C94A80C0C949B
:100090000000882331F085E080934C0210923002FA
:1000A000089580913002833021F484E080934C02E3
:1000B0000895809130028F5F809330020895EDE4BF
:1000C000F2E089E38083818384E08283838384E711
:1000D00090E09583848380E790E09783868380E631
:1000E00090E091878087CF010E94F602811181E024
:1000F0000895EBE3F2E080E3818383E3808381E092
:10010000828385E0838386E0848387E08583CF01D3
:100110000E94FF03811181E00895E1E4F2E0118281
:10012000128285E0808380E090E0A0EAB0E48383DF
:100130009483A583B683CF010E947105811106C007
:1001400081EB90E00E94360780E0089581E00895F9
:100150000E945F000E9479000E948D000E94BF09EA
:10016000089581E492E00E94E6061092300283E056
:1001700080934C020895CF93DF931F92CDB7DEB7E3
:1001800019828AE00E94EB09CE0101960E94130AAF
:100190008981893021F481E080934C0203C083E09F
:1001A00080934C020F90DF91CF910895CF93DF930E
:1001B0001F92CDB7DEB78FEF898368E770E08BE3DE
:1001C00092E00E945D0440E061E08BE392E00E94D7
:1001D00078046FE770E08BE392E00E945D0407C053
:1001E000BE016F5F7F4F8DE492E00E9441038981E1
:1001F0008F3FB1F3813319F0823341F00BC08BE0B4
:100200000E94EB0983E080934C0230C082E080932F
:100210004C022CC040E060E08BE392E00E94780446
:100220008BE392E00E948B0461E970E08BE392E043
:100230000E945D0440E061E08BE392E00E9478045C
:100240006DE970E08BE392E00E945D0460E070E491
:100250008CE196E40E942C0A40E060E08BE392E09F
:100260000E9478048BE392E00E948B040F90DF9150
:10027000CF910895EF92FF920F931F93CF93DF9347
:1002800000D000D01F92CDB7DEB78C017B018FEF7D
:1002900089831A821B821C821D8240E060E08BE30E
:1002A00092E00E947804B8018BE392E00E945D0422
:1002B00040E061E08BE392E00E94780400E010E00F
:1002C0001AC0BE016F5F7F4F8DE492E00E94410330
:1002D00089818F3FB1F34AE261E08BE392E00E94B3
:1002E000AD03E2E0F0E0EC0FFD1FE00FF11F8981AC
:1002F00080830F5F1F4F0430110554F307C0BE0108
:100300006F5F7F4F8DE492E00E94410389818134C9
:10031000B1F780E090E00CC0D701A80FB91FE2E070
:10032000F0E0EC0FFD1FE80FF91F20812C930196E0
:10033000843091058CF340E060E08BE392E00E9412
:1003400078048BE392E00E948B040F900F900F9043
:100350000F900F90DF91CF911F910F91FF90EF9031
:100360000895CF93DF93CDB7DEB728970FB6F894F3
:10037000DEBF0FBECDBF19821A821B821C821D8276
:100380001E821F821886BE016F5F7F4F87EA90E052
:100390000E943A01BE016B5F7F4F8AEB90E00E94A2
:1003A0003A01BE016B5F7F4FCE0101960E947B0A2E
:1003B000892B59F485E00E94EB09CE0101960E9439
:1003C000FF0983E080934C021FC06BEC70E08BE36D
:1003D00092E00E945D0440E061E08BE392E00E94C5
:1003E00078046DED70E08BE392E00E945D0460E0C4
:1003F00070E48CE196E40E942C0A8BE392E00E9468
:100400008B0481E080934C0228960FB6F894DEBFEF
:100410000FBECDBFDF91CF910895CF93DF93CDB7BE
:10042000DEB72C970FB6F894DEBF0FBECDBF198292
:100430001A821B821C821D821E821F8218861986C8
:100440001A861B861C86BE016F5F7F4F83EE90E08D
:100450000E943A016CE272E0CE0101960E947B0A92
:10046000892B09F042C0BE016B5F7F4F87EA90E0A5
:100470000E943A01BE01675F7F4F8AEB90E00E94C5
:100480003A01BE01675F7F4FCE0105960E947B0A4D
:10049000892B59F484E00E94EB09CE0105960E9455
:1004A000FF0983E080934C0223C06BEC70E08BE388
:1004B00092E00E945D0440E061E08BE392E00E94E4
:1004C00078046DED70E08BE392E00E945D0460E0E3
:1004D00070E48CE196E40E942C0A8BE392E00E9487
:1004E0008B0485E080934C0203C085E080934C022E
:1004F0002C960FB6F894DEBF0FBECDBFDF91CF9123
:100500000895CF93DF9300D000D01F92CDB7DEB710
:1005100019821A821B821C821D82BE016F5F7F4F6F
:1005200086EF90E00E943A0181E00E94EB09CE0143
:1005300001960E94FF09CE0105960E94130A8D8143
:10054000823099F08330C9F480E00E94490015C0E0
:10055000E1E0F0E0EC0FFD1FE80FF91F2081FC0146
:10056000E45DFD4F2083019602C080E090E084307E
:10057000910574F381E00E9449000F900F900F9055
:100580000F900F90DF91CF91089581E492E00E9447
:1005900096068CE00E94EB0987E080934C02089558
:1005A00010924C020E94A80080914C02823091F07F
:1005B00028F4882349F0813051F0F6CF843099F047
:1005C00060F0853069F0F0CF0E94BB00EDCF0E9453
:1005D000B101EACF0E940D02E7CF0E948102E4CF71
:1005E0000E94D600E1CF0E94C502DECFFF920F939A
:1005F0001F93CF93DF93EC0100E010E0F12C1EC0BD
:10060000EE81FF81E00FF11F42E0608188810E944E
:10061000900481110CC0EE81FF81E00FF11F41E0D9
:10062000608188810E94D504811104C005C0FF2427
:10063000F39402C0FF24F3940F5F1F4F8B8190E06F
:1006400008171907ECF200E010E00FC0EC81FD8103
:10065000E00FF11F40E0608189810E9490048823AF
:1006600011F0FF24F3940F5F1F4F8A8190E0081769
:10067000190764F38F2DDF91CF911F910F91FF9098
:100680000895FF920F931F93CF93DF93EC018B019B
:10069000F12C58C0E881F0E02281AE81BF81AF0D1E
:1006A000B11D81E090E00C9002C0880F991F0A9460
:1006B000E2F780958223828360E070E080EA90E434
:1006C0000E942C0A20E036C0E981F0E08081EC81B4
:1006D000FD81422F50E0E40FF51F90E0008002C042
:1006E000959587950A94E2F780FD20C00EC0888515
:1006F00099853A81EF2DF0E0239FE00DF11D112443
:10070000E80FF91F8081F8018083E981F0E08081A2
:10071000EC81FD81E40FF51F90E0008002C095950B
:1007200087950A94E2F780FFE2CF10C08FEFF801BF
:1007300080832F5F8B81281738F2E881F0E08FEFFC
:100740008283F3948A81F81608F4A4CF80E0DF91C5
:10075000CF911F910F91FF9008951F93CF93DF9337
:10076000EC01142F611106C06B8140E089810E9469
:10077000D50407C0613029F46B8141E089810E9472
:10078000D5046D8141E089810E94D50460E070E06C
:1007900080E89FE30E942C0A8A81813039F440E08E
:1007A000612F88810E943505182F08C0811122C051
:1007B0004FE0612F88810E943505182F60E070E0BE
:1007C00080E89FE30E942C0A6D8140E089810E94AD
:1007D000D504C82F60E070E080E89FE30E942C0AF7
:1007E000C11104C0112321F081E005C081E003C0E4
:1007F00080E001C084E0DF91CF911F9108951F93A5
:10080000CF93DF93EC016D8142E089810E949004D7
:100810006C8142E089810E9490046B8142E0898171
:100820000E94900481113FC08A81813081F44FEF92
:1008300062E088810E94060581111BC048E360E0E8
:10084000CE010E94AD03811116C010E01BC08111C2
:1008500014C04FE062E088810E94060581110FC03C
:1008600048E260E0CE010E94AD0381110AC010E0B1
:1008700009C011E007C012E005C014E003C011E098
:1008800001C012E0111114C04CE060E0CE010E94E2
:10089000AD0381110AC041E060E0CE010E94AD03CA
:1008A000811105C005C011E003C012E001C012E0D3
:1008B000812FDF91CF911F910895EF92FF920F93B7
:1008C0001F93CF937C018B01C0E080E005C061E005
:1008D000C7010E94AD03CF5FF801EC0FF11D40810D
:1008E0004111F5CFCF911F910F91FF90EF90089597
:1008F000613039F058F0623031F0633031F040E06F
:1009000005C0405C03C0405F01C0405B406860E0E0
:100910000E94AD03089541E060E00E94AD03089598
:10092000893331F0863321F0833311F08033B9F508
:100930006830B8F5413089F0F8F04230A1F5E82F81
:10094000F0E0218181E090E002C0880F991F6A9554
:10095000E2F7822B818380E00895E82FF0E0218187
:1009600081E090E002C0880F991F6A95E2F78095B8
:100970008223818380E00895E82FF0E0218181E0E7
:1009800090E002C0880F991F6A95E2F7982F909522
:10099000922391839281892B828380E0089582E063
:1009A000089583E0089584E00895893331F0863313
:1009B00021F0833311F0803319F5683018F54423A2
:1009C00081F0413009F5E82FF0E0228181E090E0EC
:1009D00002C0880F991F6A95E2F7822B828380E01C
:1009E0000895E82FF0E0228181E090E002C0880FB6
:1009F000991F6A95E2F780958223828380E00895AB
:100A000082E0089583E0089585E00895893331F008
:100A1000863321F0833311F0803319F5613069F0AA
:100A2000B0F0623001F5E82FF0E081818FEF818333
:100A300082814823428380E00895E82FF0E081819D
:100A40008423818382814823428380E00895E82FB4
:100A5000F0E081814823418382818FEF828380E0AF
:100A6000089582E0089583E00895893331F0863354
:100A700021F0833311F0803341F4E82FF0E08281DC
:100A80004823642B628380E0089582E008958330D8
:100A900081F028F4813041F08230F1F019C08430C7
:100AA00069F0853081F014C060E070E080E89FE379
:100AB000089560E070E080E892E4089560E070E0FE
:100AC00080E893E4089560E070E080E894E408959D
:100AD00060E070E0CB01089560E070E080E091E4B8
:100AE00008954F925F926F927F92CF92DF92EF9232
:100AF000FF920F931F93CF938C018FB780688FBFA6
:100B0000F801C0818C2F0E9447056B017C0120E019
:100B100034E244EF5AE40E94FE0AF80121812330B6
:100B200018F4213028F050C0233009F49CC0E5C0EF
:100B300023B7287FC22BC3BF20E030E040E853E456
:100B40000E94190CF8012281211117C012BE23B78F
:100B5000206823BFC380D480E580F6809B01AC0170
:100B6000C701B6010E94FE0AF8016783708781877A
:100B700092870E943B0780E0CDC0213009F0BFC0C2
:100B800012BE23B7206823BF23B7286023BFF80114
:100B90004380548065807680A30192010E94140CEA
:100BA00018160CF0AEC020E034E244EF5AE4C30162
:100BB000B2010E94190CA70196010E94FE0A0E9430
:100BC000700B6CBF80E0A6C02EB5287FC22BCEBDB7
:100BD00020E030E040E857E40E94190CF80122813F
:100BE00021111AC01CBC2FB528602FBD2FB5246061
:100BF0002FBDC380D480E580F6809B01AC01C70186
:100C0000B6010E94FE0AF801678370878187928788
:100C10000E943B0780E07EC0213009F074C01CBCFC
:100C20002FB528602FBD2FB528602FBDF801438058
:100C3000548065807680A30192010E94140C1816DE
:100C40000CF063C020E034E244EF5AE4C301B20187
:100C50000E94190CA70196010E94FE0A0E94700BC7
:100C60006ABD80E057C025B5287FC22BC5BD20E0F6
:100C700030E040E853E40E94190CF8012281211170
:100C800017C014BC25B5206825BDC380D480E5807D
:100C9000F6809B01AC01C701B6010E94FE0AF80173
:100CA00067837087818792870E943B0780E032C00C
:100CB000213069F514BC25B5206825BD25B528600F
:100CC00025BDF8014380548065807680A3019201A0
:100CD0000E94140C1816ECF420E034E244EF5AE4BD
:100CE000C301B2010E94190CA70196010E94FE0ADD
:100CF0000E94700B63BD80E00DC080E00BC083E0FC
:100D000009C084E007C083E005C084E003C083E03D
:100D100001C084E0CF911F910F91FF90EF90DF9081
:100D2000CF907F906F905F904F900895FC019181DC
:100D30009130A9F028F0923009F1933071F13CC064
:100D40008281811105C089B7816089BF80E00895E3
:100D50008130A1F589B7826089BF80E008958281E2
:100D6000811105C089B7846089BF80E00895813012
:100D700039F589B7806189BF80E00895828181114A
:100D800005C089B7806489BF80E008958130D1F4BF
:100D900089B7886089BF80E008958281811105C08C
:100DA00089B7806489BF80E00895813069F489B78C
:100DB000806889BF80E0089582E0089583E0089507
:100DC00083E0089583E0089583E00895FC01918114
:100DD0009130A9F028F0923009F1933071F13CC0C4
:100DE0008281811105C089B78E7F89BF80E0089517
:100DF0008130A1F589B78D7F89BF80E00895828118
:100E0000811105C089B78B7F89BF80E0089581304B
:100E100039F589B78F7E89BF80E00895828181117D
:100E200005C089B7806489BF80E008958130D1F41E
:100E300089B7886089BF80E008958281811105C0EB
:100E400089B78F7B89BF80E00895813069F489B7C5
:100E50008F7789BF80E0089582E0089583E0089548
:100E600083E0089583E0089583E0089590933A0223
:100E70008093390208956093310270933202809317
:100E800033029093340208951F920F920FB60F927F
:100E900011242F933F934F935F936F937F938F937F
:100EA0009F93AF93BF93EF93FF93E0913902F0913B
:100EB0003A02309709F00995FF91EF91BF91AF91F8
:100EC0009F918F917F916F915F914F913F912F9162
:100ED0000F900FBE0F901F9018951F920F920FB694
:100EE0000F9211242F933F934F935F936F937F93B0
:100EF0008F939F93AF93BF93EF93FF93E09139024A
:100F0000F0913A02309709F00995FF91EF91BF9166
:100F1000AF919F918F917F916F915F914F913F9191
:100F20002F910F900FBE0F901F9018951F920F9248
:100F30000FB60F9211242F933F934F935F936F93AC
:100F40007F938F939F93AF93BF93EF93FF93E09122
:100F50003902F0913A02309709F00995FF91EF912B
:100F6000BF91AF919F918F917F916F915F914F91C1
:100F70003F912F910F900FBE0F901F9018951F92C9
:100F80000F920FB60F9211242F933F934F935F93BD
:100F90006F937F938F939F93AF93BF93EF93FF9341
:100FA000E0913902F0913A02309709F00995FF91EA
:100FB000EF91BF91AF919F918F917F916F915F91D1
:100FC0004F913F912F910F900FBE0F901F9018954A
:100FD0001F920F920FB60F9211242F933F934F93AE
:100FE0005F936F937F938F939F93AF93BF93EF9391
:100FF000FF93E0913902F0913A02309709F0099598
:10100000FF91EF91BF91AF919F918F917F916F91E0
:101010005F914F913F912F910F900FBE0F901F90B6
:1010200018951F920F920FB60F9211242F933F9392
:101030004F935F936F937F938F939F93AF93BF93E0
:10104000EF93FF93E0913902F0913A02309709F063
:101050000995FF91EF91BF91AF919F918F917F91F2
:101060006F915F914F913F912F910F900FBE0F9015
:101070001F9018951F920F920FB60F9211242F9365
:101080003F934F935F936F937F938F939F93AF9310
:10109000BF93CF93DF93EF93FF93609135027091ED
:1010A0003602809137029091380220E030E040E82B
:1010B0005FE30E948D0A609335027093360280933D
:1010C000370290933802C0913902D0913A022097AA
:1010D000F1F0609135027091360280913702909163
:1010E0003802209131023091320240913302509106
:1010F00034020E94140C882354F01092350210928E
:1011000036021092370210923802FE010995FF91C3
:10111000EF91DF91CF91BF91AF919F918F917F918F
:101120006F915F914F913F912F910F900FBE0F9054
:101130001F9018951F920F920FB60F9211242F93A4
:101140003F934F935F936F937F938F939F93AF934F
:10115000BF93EF93FF93E0913902F0913A023097F9
:1011600009F00995FF91EF91BF91AF919F918F91F8
:101170007F916F915F914F913F912F910F900FBE93
:101180000F901F901895CF92DF92EF92FF92CF931E
:10119000DF93EC018BB182608BB98AB180618AB92F
:1011A0008AB188608AB980B5806880BD288139811C
:1011B000203689E0380749F0203C82E1380729F0E1
:1011C000203885E2380709F042C0C901A0E0B0E04C
:1011D000880F991FAA1FBB1F880F991FAA1FBB1F2B
:1011E0009C01AD01220F331F441F551F0F2EC12C30
:1011F000F2E1DF2EFAE7EF2EF12CF02DC701B60158
:101200000E94860CDA01C9010197A109B109892F51
:101210009A2FAB2FBB2780BD28813981C901A0E05F
:10122000B0E0880F991FAA1FBB1F880F991FAA1F24
:10123000BB1F9C01AD01220F331F441F551FC70167
:10124000B6010E94860C215029B980E001C083E0DC
:101250009A81911104C090B5977F90BD07C09130DD
:1012600021F490B5986090BD01C082E09B819111FE
:1012700007C090B59F7E90BD90B59F7D90BD13C077
:10128000913039F490B59F7E90BD90B5906290BD3D
:101290000AC0923039F490B5906190BD90B59062DB
:1012A00090BD01C082E09C8191110AC090B59D7FE4
:1012B00090BD90B59B7F90BD9AB19B7F9AB931C08C
:1012C000913051F490B5926090BD90B59B7F90BDE8
:1012D0009AB19B7F9AB925C0923051F490B59D7F09
:1012E00090BD90B5946090BD9AB19B7F9AB919C09A
:1012F000933051F490B5926090BD90B5946090BDDC
:101300009AB19B7F9AB90DC0943051F490B5926018
:1013100090BD90B5946090BD9AB194609AB901C0A7
:1013200084E0DF91CF91FF90EF90DF90CF90089510
:101330005D9BFECF8CB980E008955F9BFECF2CB102
:10134000FC01208380E008950F931F93CF93DF93D8
:101350008C01C0E0D0E007C00E949809811102C052
:10136000CF5F01C0D1E0F801EC0FF11D8081811148
:10137000F3CF8D2FDF91CF911F910F910895CF93D0
:10138000DF9300D000D01F92CDB7DEB780E895E2A2
:101390009A83898383E08D831B821C82CE01019610
:1013A0000E94C308882341F065E071E089E291E082
:1013B0000E94280A81E007C06AE371E089E291E0B7
:1013C0000E94270A80E00F900F900F900F900F90CF
:1013D000DF91CF9108950E949809882341F06FE52D
:1013E00071E089E291E00E94280A81E0089563E7B4
:1013F00071E089E291E00E94270A80E008950E944E
:10140000A409882341F068E871E089E291E00E9434
:10141000280A81E0089563EA71E089E291E00E9480
:10142000270A80E008950E949D09882341F06FEB10
:1014300071E089E291E00E94280A81E0089566ED5A
:1014400071E089E291E00E94270A80E00895089502
:1014500008950197F1F708958F929F92AF92BF92EE
:10146000CF92DF92EF92FF92CF93DF934B015C011B
:1014700020E030E04AEF54E40E94190C6B017C013B
:1014800020E030E040E85FE30E94F90A882324F17D
:1014900020E03FEF4FE757E4C701B6010E94140C6C
:1014A0001816A4F420E030E040E251E4C501B40194
:1014B0000E94190C0E94700BEB0105C088EC90E0B3
:1014C0000E94290A21972097C9F70AC0C701B601CF
:1014D0000E94700BCB0102C081E090E00E94290ABB
:1014E000DF91CF91FF90EF90DF90CF90BF90AF90C2
:1014F0009F908F900895DC01FB0105C080819813B7
:1015000005C0119631969C919111F8CF2081892FB9
:1015100090E0821B910908955058BB27AA270E948A
:10152000A40A0C94DA0B0E94CC0B38F00E94D30B67
:1015300020F039F49F3F19F426F40C94C90B0EF4F3
:10154000E095E7FB0C94C30BE92F0E94EB0B58F3DB
:10155000BA17620773078407950720F079F4A6F598
:101560000C940D0C0EF4E0950B2EBA2FA02D0B0150
:10157000B90190010C01CA01A0011124FF27591BD8
:1015800099F0593F50F4503E68F11A16F040A22FDE
:10159000232F342F4427585FF3CF4695379527954F
:1015A000A795F0405395C9F77EF41F16BA0B620B4E
:1015B000730B840BBAF09150A1F0FF0FBB1F661F95
:1015C000771F881FC2F70EC0BA0F621F731F841FD8
:1015D00048F4879577956795B795F7959E3F08F0FE
:1015E000B0CF9395880F08F09927EE0F97958795C0
:1015F00008950E949F0B08F481E008950E94120B49
:101600000C94DA0B0E94D30B58F00E94CC0B40F0E4
:1016100029F45F3F29F00C94C30B51110C940E0C6C
:101620000C94C90B0E94EB0B68F39923B1F355237B
:1016300091F3951B550BBB27AA27621773078407E5
:1016400038F09F5F5F4F220F331F441FAA1FA9F37B
:1016500035D00E2E3AF0E0E832D091505040E69569
:10166000001CCAF72BD0FE2F29D0660F771F881FCA
:10167000BB1F261737074807AB07B0E809F0BB0BBD
:10168000802DBF01FF2793585F4F3AF09E3F5105D1
:1016900078F00C94C30B0C940E0C5F3FE4F3983E6F
:1016A000D4F3869577956795B795F7959F5FC9F7BA
:1016B000880F911D9695879597F90895E1E0660F3B
:1016C000771F881FBB1F621773078407BA0720F0B4
:1016D000621B730B840BBA0BEE1F88F7E09508951D
:1016E0000E94F30B88F09F5798F0B92F9927B751B4
:1016F000B0F0E1F0660F771F881F991F1AF0BA95B6
:10170000C9F714C0B13091F00E940D0CB1E00895FA
:101710000C940D0C672F782F8827B85F39F0B93FEC
:10172000CCF3869577956795B395D9F73EF4909568
:101730008095709561957F4F8F4F9F4F0895990FBA
:101740000008550FAA0BE0E8FEEF16161706E8078B
:10175000F907C0F012161306E407F50798F0621BAC
:10176000730B840B950B39F40A2661F0232B242B81
:10177000252B21F408950A2609F4A140A6958FEFA0
:10178000811D811D089597F99F6780E870E060E0F2
:1017900008959FEF80EC089500240A94161617060A
:1017A00018060906089500240A9412161306140652
:1017B00005060895092E0394000C11F4882352F0B5
:1017C000BB0F40F4BF2B11F460FF04C06F5F7F4F6D
:1017D0008F4F9F4F089557FD9058440F551F59F054
:1017E0005F3F71F04795880F97FB991F61F09F3F0E
:1017F00079F087950895121613061406551FF2CF37
:101800004695F1DF08C0161617061806991FF1CF86
:1018100086957105610508940895E894BB276627AD
:101820007727CB0197F908950E949F0B08F48FEF5B
:1018300008950E942C0C0C94DA0B0E94CC0B38F00B
:101840000E94D30B20F0952311F00C94C30B0C9441
:10185000C90B11240C940E0C0E94EB0B70F3959F96
:10186000C1F3950F50E0551F629FF001729FBB2797
:10187000F00DB11D639FAA27F00DB11DAA1F649F33
:101880006627B00DA11D661F829F2227B00DA11DE6
:10189000621F739FB00DA11D621F839FA00D611D6C
:1018A000221F749F3327A00D611D231F849F600D8D
:1018B000211D822F762F6A2F11249F5750409AF0B6
:1018C000F1F088234AF0EE0FFF1FBB1F661F771F42
:1018D000881F91505040A9F79E3F510580F00C940D
:1018E000C30B0C940E0C5F3FE4F3983ED4F3869543
:1018F00077956795B795F795E7959F5FC1F7FE2BAD
:10190000880F911D9695879597F90895A1E21A2E53
:10191000AA1BBB1BFD010DC0AA1FBB1FEE1FFF1F93
:10192000A217B307E407F50720F0A21BB30BE40BE3
:10193000F50B661F771F881F991F1A9469F760952A
:101940007095809590959B01AC01BD01CF010895E4
:04195000F894FFCF39
:101954003738392F3435362A3132332D41303D2B47
:101964000405060700010203312D4F70656E003235
:101974002D4368616E67652070617373776F72645D
:101984000057726F6E6720496E70757400547279D7
:1019940020416761696E00456E746572206E6577DB
:1019A4002070617373776F726400436F6E6669723F
:1019B4006D2070617373776F726400506173737715
:1019C4006F72647320446F65736E2774004D617485
:1019D400636800456E746572206F6C642070617377
:1019E40073776F726400456E7465722070617373EF
:1019F400776F7264004661696C656420746F206956
:101A04006E697469616C697A65206D657373616769
:101A1400696E6720556E6974005B4D4553534147A9
:101A2400494E4720554E49545D00537563636565BF
:101A34006420746F20696E697469616C697A6520C9
:101A44006D6573736167696E6720556E69740046CE
:101A540061696C656420746F2073656E64206461D1
:101A64007461005375636365656420746F207365E6
:101A74006E642064617461004661696C65642074FD
:101A84006F2073656E6420737472696E672064617D
:101A94007461005375636365656420746F207365B6
:101AA4006E6420737472696E6720646174610046A9
:101AB40061696C656420746F20726563656976651D
:101AC4002064617461005375636365656420746F99
:101AD400207265636569766520646174610046619E
:101AE400696C656420746F2072656365697665202E
:101AF400737472696E672064617461005375636303
:101B040065656420746F207265636569766520730A
:0C1B14007472696E6720646174610000E7
:00000001FF
