S011000073746F7077617463682E7372656336
S11300000C942A000C9461010C9471010C943C0032
S11300100C943C000C943C000C9450010C943C0057
S11300200C943C000C943C000C943C000C943C005C
S11300300C943C000C943C000C943C000C943C004C
S11300400C943C000C943C000C9480010C943C00F7
S11300500C943C0011241FBECFE5D4E0DEBFCDBF1D
S113006020E0A0E6B0E001C01D92A336B207E1F79C
S11300700E9492000C94A8010C9400008FE38ABBA8
S11300808FE084BB089561110EC04BB321E030E0D2
S1130090B90102C0660F771F8A95E2F7CB018095FC
S11300A084238BBB08954BB321E030E0B90102C037
S11300B0660F771F8A95E2F7CB01842B8BBB0895DB
S11300C01F93CF93DF93D82F162FC0E060E08C2FBF
S11300D00E944300CF5FC530C9F761E0812F0E94C1
S11300E04300D5BBDF91CF911F9108958FB78068EE
S11300F08FBF8BB780648BBF8BB780688BBF8BB788
S113010080628BBF85B7826085BF85B78E7F85BFD0
S113011085B7886085BF85B78B7F85BF84B78F7BA4
S113012084BF08950E9476000E948F010E943E00C1
S1130130CDEC809162008C3339F41092620080918E
S113014061008F5F80936100809161008C3339F48A
S113015010926100809160008F5F809360008091B5
S11301606000883131F410926200109261001092A4
S11301706000809162008A3030F48091620060E017
S11301800E94600028C0809162008C9F912D1124F0
S1130190969596959695990F292F220F220F920FD7
S11301A060E0891B0E946000809162008C9F812D19
S11301B011248695869586958C9F912D112496956C
S11301C096959695990F292F220F220F920F61E091
S11301D0891B0E946000809161008A3030F4809114
S11301E0610062E00E94600028C0809161008C9FE1
S11301F0912D1124969596959695990F292F220F56
S1130200220F920F62E0891B0E94600080916100BE
S11302108C9F812D11248695869586958C9F912D92
S11302201124969596959695990F292F220F220FB2
S1130230920F63E0891B0E946000809160008A3005
S113024030F48091600064E00E94600072CF80917D
S113025060008C9F912D1124969596959695990FF3
S1130260292F220F220F920F64E0891B0E94600045
S1130270809160008C9F812D1124869586958695AA
S11302808C9F912D1124969596959695990F292FCB
S1130290220F220F920F65E0891B0E94600049CF54
S11302A01F920F920FB60F9211248F9380916200C8
S11302B08F5F809362008F910F900FBE0F901F90FD
S11302C018951F920F920FB60F921124109262008C
S11302D010926100109260000F900FBE0F901F905B
S11302E018951F920F920FB60F9211248F9389B70E
S11302F08F7E89BF8F910F900FBE0F901F9018951E
S11303001F920F920FB60F9211248F9389B78061B9
S113031089BF8F910F900FBE0F901F9018958FB7C4
S113032080688FBF1DBC1CBC80ED93E09BBD8ABD63
S113033089B7806189BF8FB588608FBD8EB58860AD
S11303408EBD8EB581608EBD8EB584608EBD0895E0
S1070350F894FFCF4B
S9030000FC
