:100000000C942A000C943C000C943C000C943C0092
:100010000C943C000C943C000C9482000C943C002A
:100020000C943C000C943C000C943C000C943C0060
:100030000C943C000C943C000C943C000C943C0050
:100040000C943C000C943C000C943C000C943C0040
:100050000C943C0011241FBECFE5D4E0DEBFCDBF21
:1000600020E0A0E6B0E001C01D92A136B207E1F7A2
:100070000E9459000C94B6000C9400008FB7806861
:100080008FBF1DBC1CBC80ED93E09BBD8ABD89B7B2
:10009000806189BF88E08FBD8DE08EBD08958FE3BC
:1000A0008ABB8FE084BB08950E944F000E943E00EF
:1000B00008950E945400FFCF61110EC04BB321E0A0
:1000C00030E0B90102C0660F771F8A95E2F7CB01D5
:1000D000809584238BBB08954BB321E030E0B901B8
:1000E00002C0660F771F8A95E2F7CB01842B8BBB8A
:1000F0000895CF93C82F862F61E00E945C00C5BB96
:10010000CF9108951F920F920FB60F9211242F9343
:100110003F934F935F936F937F938F939F93AF938F
:10012000BF93EF93FF93809160008F5F8093600097
:1001300060E00E947900809160008A3031F4109272
:10014000600060E080E00E947900FF91EF91BF9134
:10015000AF919F918F917F916F915F914F913F915F
:100160002F910F900FBE0F901F901895F894FFCF0E
:00000001FF
