:100000000C942A000C9407010C942E010C945501B9
:100010000C943C000C943C000C943C000C943C0070
:100020000C943C000C943C000C943C000C943C0060
:100030000C943C000C943C000C943C000C943C0050
:100040000C943C000C943C000C943C000C943C0040
:100050000C943C0011241FBECFE5D8E0DEBFCDBF1D
:1000600020E0A0E6B0E001C01D92AC36B207E1F797
:100070000E94C2000C9412020C940000FC018281C8
:10008000882319F0813051F012C040E061818081F5
:100090000E947C01882369F082E0089541E061813B
:1000A00080810E947C01882331F082E0089581E004
:1000B000089580E0089580E00895EF92FF920F93F5
:1000C0001F93CF93DF931F92CDB7DEB78C017B01D7
:1000D000AE014F5F5F4FFC01618180810E94F6019C
:1000E000811113C0F8018281813029F48981F701DF
:1000F000808380E00DC081110AC081E09981911157
:1001000080E0F701808380E003C082E001C081E0ED
:100110000F90DF91CF911F910F91FF90EF90089575
:10012000FC012281223048F442E0618180810E94FA
:100130007C01882321F082E0089581E0089580E029
:100140000895FC012281211109C0462F618180811F
:100150000E94C701882381F082E00895213071F464
:1001600041E0611140E0FC01618180810E94C70192
:10017000882331F082E0089580E0089581E00895B9
:1001800080E00895CF93DF931F92CDB7DEB700E6EE
:1001900010E00F2EF3E3FF2EF02DF801F082118214
:1001A0001282C8010E949000F801F082EE24E394CC
:1001B000E182128289E690E00E949000F801F082CC
:1001C00082E08183128286E690E00E949000E3E65E
:1001D000F0E0F082E182E282CF010E943E00BE01A7
:1001E0006F5F7F4F83E690E00E945D0089818823E6
:1001F00041F08130A1F761E080E690E00E94A1002B
:10020000EECF60E080E690E00E94A100E8CF1F9270
:100210000F920FB60F9211242F933F934F935F933A
:100220006F937F938F939F93AF93BF93EF93FF93BE
:1002300061E080E690E00E94A100FF91EF91BF9104
:10024000AF919F918F917F916F915F914F913F916E
:100250002F910F900FBE0F901F9018951F920F9225
:100260000FB60F9211242F933F934F935F936F9389
:100270007F938F939F93AF93BF93EF93FF9361E02F
:1002800089E690E00E94A100FF91EF91BF91AF91AC
:100290009F918F917F916F915F914F913F912F919E
:1002A0000F900FBE0F901F9018951F920F920FB6D0
:1002B0000F9211242F933F934F935F936F937F93EC
:1002C0008F939F93AF93BF93EF93FF9361E086E685
:1002D00090E00E94A100FF91EF91BF91AF919F919B
:1002E0008F917F916F915F914F913F912F910F90DF
:1002F0000FBE0F901F901895893331F0863321F08F
:10030000833311F08033E9F56830E8F5413091F03E
:1003100008F14230D1F58F5FE82FF0E0208181E0D5
:1003200090E002C0880F991F6A95E2F7822B8083C4
:1003300080E008958F5FE82FF0E0208181E090E079
:1003400002C0880F991F6A95E2F780958223808307
:1003500080E00895E1E0E80FF0E0408121E030E046
:1003600002C0220F331F6A95E2F7922F90959423D3
:1003700090838E5FE82FF0E08081282B208380E03F
:10038000089582E0089583E0089584E00895893314
:1003900031F0863321F0833311F0803319F5442393
:1003A00089F0413009F58E5FE82FF0E0208181E08F
:1003B00090E002C0880F991F6A95E2F7822B808334
:1003C00080E008958E5FE82FF0E0208181E090E0EA
:1003D00002C0880F991F6A95E2F780958223808377
:1003E00080E0089582E0089585E00895893331F032
:1003F000863321F0833311F0803381F4683080F448
:10040000E82FF0E0808190E002C0959587956A958D
:10041000E2F78170FA01808380E0089582E0089518
:0804200083E00895F894FFCF7A
:00000001FF
