S010000061746D65676133322E7372656340
S11300000C942A000C94F5000C943C000C943C00D5
S11300100C943C000C943C000C943C000C943C006C
S11300200C943C000C943C000C943C000C943C005C
S11300300C943C000C943C000C943C000C943C004C
S11300400C943C000C943C000C943C000C943C003C
S11300500C943C0011241FBECFE5D8E0DEBFCDBF19
S113006020E0A0E6B0E001C01D92A636B207E1F799
S11300700E94C2000C9410020C940000FC018281C6
S1130080882319F0813051F012C040E061818081F1
S11300900E941C01882369F082E0089541E0618197
S11300A080810E941C01882331F082E0089581E060
S11300B0089580E0089580E00895EF92FF920F93F1
S11300C01F93CF93DF931F92CDB7DEB78C017B01D3
S11300D0AE014F5F5F4FFC01618180810E949601F8
S11300E0811113C0F8018281813029F48981F701DB
S11300F0808380E00DC081110AC081E09981911153
S113010080E0F701808380E003C082E001C081E0E9
S11301100F90DF91CF911F910F91FF90EF90089571
S1130120FC012281223048F442E0618180810E94F6
S11301301C01882321F082E0089581E0089580E085
S11301400895FC012281211109C0462F618180811B
S11301500E946701882381F082E00895213071F4C0
S113016041E0611140E0FC01618180810E946701EE
S1130170882331F082E0089580E0089581E00895B5
S113018080E00895CF93DF931F92CDB7DEB7E0E60A
S1130190F0E013E3108311821282CF010E949000D9
S11301A0E3E6F0E0108381E081838283CF010E9443
S11301B03E0060E086E00E94B201BE016F5F7F4FA7
S11301C083E690E00E945D008981882341F08130BC
S11301D0A1F761E080E690E00E94A100EECF60E02C
S11301E080E690E00E94A100E8CF1F920F920FB624
S11301F00F9211242F933F934F935F936F937F93A9
S11302008F939F93AF93BF93EF93FF9361E080E647
S113021090E00E94A100FF91EF91BF91AF919F9157
S11302208F917F916F915F914F913F912F910F909B
S11302300FBE0F901F901895893331F0863321F04B
S1130240833311F08033E9F56830E8F5413091F0FB
S113025008F14230D1F58F5FE82FF0E0208181E092
S113026090E002C0880F991F6A95E2F7822B808381
S113027080E008958F5FE82FF0E0208181E090E036
S113028002C0880F991F6A95E2F7809582238083C4
S113029080E00895E1E0E80FF0E0408121E030E003
S11302A002C0220F331F6A95E2F7922F9095942390
S11302B090838E5FE82FF0E08081282B208380E0FC
S11302C0089582E0089583E0089584E008958933D1
S11302D031F0863321F0833311F0803319F5442350
S11302E089F0413009F58E5FE82FF0E0208181E04C
S11302F090E002C0880F991F6A95E2F7822B8083F1
S113030080E008958E5FE82FF0E0208181E090E0A6
S113031002C0880F991F6A95E2F780958223808333
S113032080E0089582E0089585E00895893331F0EE
S1130330863321F0833311F0803381F4683080F404
S1130340E82FF0E0808190E002C0959587956A954A
S1130350E2F78170FA01808380E0089582E00895D5
S113036083E008959FB790689FBF863031F087304F
S113037011F1853009F04CC03CC0613061F018F0D7
S1130380623089F047C085B7816085BF85B78260D8
S113039085BF80E0089585B7826085BF85B78E7F6D
S11303A085BF80E0089585B7816085BF85B78D7F5F
S11303B085BF80E00895613061F018F0623089F003
S11303C02BC085B7886085BF85B7846085BF80E012
S11303D0089585B7886085BF85B78B7F85BF80E02A
S11303E0089585B7846085BF85B7877F85BF80E022
S11303F00895662319F0613031F010C085B7806428
S113040085BF80E0089584B78F7B84BF80E0089522
S113041082E0089581E0089581E0089581E00895DF
S1070420F894FFCF7A
S9030000FC
